:100000000C942A000C9447000C9447000C94470071
:100010000C9447000C9447000C9447000C94470044
:100020000C9447000C9447000C9413070C94CA06D8
:100030000C9416080C9447000C9447000C9447004D
:100040000C9447000C9447000C9447000C94470014
:100050000C94470011241FBECFE5D8E0DEBFCDBF12
:1000600011E0A0E6B0E0ECE8FCE202C005900D92E1
:10007000A632B107D9F711E0A6E2B1E001C01D92A6
:10008000A333B107E1F70E9416150C9444160C94A3
:100090000000EF92FF920F931F937B018C0120E0F1
:1000A00030E040E05FE40E94F50388238CF0C80153
:1000B000B70120E030E040E05FE40E94C1010E940F
:1000C00055049B01AC01205030404040504806C0D0
:1000D000C801B7010E9455049B01AC01B901CA01D6
:1000E0001F910F91FF90EF900895A0E0B0E0EBE733
:1000F000F0E00C940D16DC012B01FA019C9192307A
:1001000008F439C1EB018881823008F433C194309E
:1001100069F4843009F02FC111969C91119789815F
:10012000981709F428C1A2E8B0E025C1843009F489
:1001300021C18230A9F4923009F01DC19A01AD01AC
:1001400088E0EA010990AE01E90109929E0181501F
:10015000C1F7E201898111969C918923818308C1AD
:10016000923009F407C112962D903C901397EB0141
:100170008A819B811496AD90BD90CD90DC901797AD
:10018000EC80FD800E811F819101281B390BB90184
:1001900037FF04C066277727621B730B6032710537
:1001A0000CF061C0121613066CF537014801062EDB
:1001B00004C096948794779467940A94D2F721E0C8
:1001C00030E040E050E004C0220F331F441F551FB1
:1001D0006A95D2F721503040404050402E213F21B7
:1001E00040235123211531054105510521F021E01E
:1001F00030E040E050E079018A01E628F72808293C
:1002000019293CC0232BD1F1260E371E350146019A
:10021000062E04C096948794779467940A94D2F734
:1002200021E030E040E050E004C0220F331F441FC3
:10023000551F6A95D2F721503040404050402A2146
:100240003B214C215D21211531054105510521F04E
:1002500021E030E040E050E059016A01A628B728CB
:10026000C828D9280BC0821593052CF01C01AA249C
:10027000BB24650103C0EE24FF24870111969C91E5
:10028000D20111968C91981709F445C0992339F041
:10029000A80197012A193B094C095D0906C0A6016E
:1002A00095012E193F09400B510B57FD08C01182D3
:1002B0003382228224833583468357831DC081E0A5
:1002C00081833382228288279927DC01821B930B4A
:1002D000A40BB50B84839583A683B7830DC0220F2F
:1002E000331F441F551F24833583468357838281E0
:1002F000938101979383828324813581468157813D
:10030000DA01C9010197A109B1098F5F9F4FAF4F72
:10031000BF4328F30BC0918333822282EA0CFB1C7B
:100320000C1D1D1DE482F5820683178383E0808304
:10033000248135814681578157FF1AC0C901AA27F8
:1003400097FDA095BA2F81709070A070B0705695EF
:10035000479537952795822B932BA42BB52B848318
:100360009583A683B7838281938101969383828349
:10037000DF0101C0D201CD01CDB7DEB7E2E10C94BF
:100380002916A0E2B0E0E7ECF1E00C9419166983BD
:100390007A838B839C832D833E834F835887E9E048
:1003A000EE2EF12CEC0EFD1ECE010196B7010E943F
:1003B0007E058E010F5E1F4FCE010596B8010E948B
:1003C0007E058A8991E089278A8BC701B801AE0131
:1003D000475E5F4F0E9475000E94A904A096E6E068
:1003E0000C943516A0E2B0E0E8EFF1E00C94191699
:1003F00069837A838B839C832D833E834F835887C5
:10040000F9E0EF2EF12CEC0EFD1ECE010196B701A6
:100410000E947E058E010F5E1F4FCE010596B8012A
:100420000E947E05C701B801AE01475E5F4F0E9482
:1004300075000E94A904A096E6E00C943516A0E28F
:10044000B0E0E5E2F2E00C940D1669837A838B83C9
:100450009C832D833E834F835887CE010196BE0136
:10046000675F7F4F0E947E05CE010596BE016F5EDD
:100470007F4F0E947E059985923088F0898982306D
:10048000C8F0943019F4823051F404C0843029F457
:10049000923081F482E890E0C6C0923049F420E0C6
:1004A0009A858A89981321E02A87CE010996BBC0D4
:1004B000823049F420E09A858A89981321E02A8BBA
:1004C000CE014196B0C02D843E844F8458886D88FB
:1004D0007E888F88988CEE24FF248701AA24BB2471
:1004E000650140E050E060E070E0E0E0F0E0C10174
:1004F00081709070892BE9F0E60CF71C081D191D1E
:100500009A01AB012A0D3B1D4C1D5D1D80E090E062
:10051000A0E0B0E0E614F7040805190520F481E036
:1005200090E0A0E0B0E0BA01A901480F591F6A1F8E
:100530007B1FAA0CBB1CCC1CDD1C97FE08C081E0F5
:1005400090E0A0E0B0E0A82AB92ACA2ADB2A3196B6
:10055000E032F10549F0660C771C881C991C569412
:10056000479437942794C3CFFA85EA892B893C892D
:100570008B859C85280F391F2E5F3F4F17C0CA01FE
:1005800081709070892B61F016950795F794E79428
:1005900080E090E0A0E0B0E8E82AF92A0A2B1B2BC3
:1005A00076956795579547952F5F3F4F77FDE7CF36
:1005B0000CC0440F551F661F771F17FD4160EE0CDE
:1005C000FF1C001F111F21503040403090E05907A0
:1005D00090E0690790E4790760F32B8F3C8FDB0193
:1005E000CA018F779070A070B07080349105A1051A
:1005F000B10561F447FD0AC0E114F10401051105DC
:1006000029F0405C5F4F6F4F7F4F40781A8EFE1786
:1006100011F081E08A8F4D8F5E8F6F8F78A383E01A
:10062000898FCE0149960E94A904A096E2E10C941C
:100630002916A8E1B0E0EFE1F3E00C941516698308
:100640007A838B839C832D833E834F835887B9E0C5
:10065000EB2EF12CEC0EFD1ECE010196B7010E948F
:100660007E058E010F5E1F4FCE010596B8010E94D8
:100670007E052985223008F47EC03989323010F495
:10068000B8017CC08A859A8989278A87243011F02D
:10069000223031F4231709F06EC062E870E06EC0BA
:1006A000343039F41D861E861F86188A1C861B86E8
:1006B00004C0323021F484E08987B7015FC02B8504
:1006C0003C858B899C89281B390B3C872B87ED84C3
:1006D000FE840F851889AD88BE88CF88D88CEA142F
:1006E000FB040C051D0540F4EE0CFF1C001F111F40
:1006F000215030403C872B8720E030E040E050E044
:1007000080E090E0A0E0B0E460E070E0EA14FB0478
:100710000C051D0540F0282B392B4A2B5B2BEA18C2
:10072000FB080C091D09B695A79597958795EE0CC2
:10073000FF1C001F111F6F5F7F4F6F31710531F775
:10074000DA01C9018F779070A070B0708034910584
:10075000A105B10561F427FD0AC0E114F10401050A
:10076000110529F0205C3F4F4F4F5F4F20782D87B8
:100770003E874F87588BBE01675F7F4FCB010E943A
:10078000A9046896EAE00C943116A8E1B0E0EBEC1D
:10079000F3E00C94191669837A838B839C832D83F1
:1007A0003E834F83588789E0E82EF12CEC0EFD1E26
:1007B000CE010196B7010E947E058E010F5E1F4F8C
:1007C000CE010596B8010E947E058985823040F0F1
:1007D0008989823028F0C701B8010E94F60501C05E
:1007E0008FEF6896E6E00C943516A8E1B0E0EBEFE9
:1007F000F3E00C94191669837A838B839C832D8391
:100800003E834F83588789E0E82EF12CEC0EFD1EC5
:10081000CE010196B7010E947E058E010F5E1F4F2B
:10082000CE010596B8010E947E058985823040F090
:100830008989823028F0C701B8010E94F60501C0FD
:100840008FEF6896E6E00C943516A8E1B0E0EBE295
:10085000F4E00C94191669837A838B839C832D832F
:100860003E834F83588789E0E82EF12CEC0EFD1E65
:10087000CE010196B7010E947E058E010F5E1F4FCB
:10088000CE010596B8010E947E058985823040F030
:100890008989823028F0C701B8010E94F60501C09D
:1008A00081E06896E6E00C943516ACE0B0E0EBE54C
:1008B000F4E00C941D1669837A838B839C83CE01AC
:1008C0000196BE016B5F7F4F0E947E058D81823055
:1008D00061F1823050F1843021F48E81882351F10E
:1008E0002EC02F81388537FD20C06E812F31310514
:1008F0001CF06623F9F023C08EE190E0821B930B7D
:1009000029853A854B855C8504C056954795379572
:1009100027958A95D2F76623B1F05095409530958A
:1009200021953F4F4F4F5F4F0EC020E030E040E039
:1009300050E009C02FEF3FEF4FEF5FE704C020E02A
:1009400030E040E050E8B901CA012C96E2E00C9496
:100950003916DF92EF92FF920F931F93FC01E48010
:10096000F58006811781D1808081823048F480E053
:1009700090E0A0E1B0E0E82AF92A0A2B1B2BA5C0E1
:10098000843009F49FC0823021F4EE24FF248701D3
:1009900005C0E114F1040105110519F4E0E0F0E0EF
:1009A00096C0628173819FEF623879070CF05BC05B
:1009B00022E83FEF261B370B2A3131052CF020E0CF
:1009C00030E040E050E02AC0B801A701022E04C088
:1009D00076956795579547950A94D2F781E090E010
:1009E000A0E0B0E004C0880F991FAA1FBB1F2A9582
:1009F000D2F70197A109B1098E219F21A023B1232C
:100A00000097A105B10521F081E090E0A0E0B0E001
:100A10009A01AB01282B392B4A2B5B2BDA01C90138
:100A20008F779070A070B07080349105A105B105EA
:100A300039F427FF09C0205C3F4F4F4F5F4F04C080
:100A4000215C3F4F4F4F5F4FE0E0F0E02030A0E0EF
:100A50003A07A0E04A07A0E45A0710F0E1E0F0E00E
:100A600079018A0127C06038710564F5FB01E158FE
:100A7000FF4FD801C7018F779070A070B07080349D
:100A80009105A105B10539F4E7FE0DC080E490E0C1
:100A9000A0E0B0E004C08FE390E0A0E0B0E0E80E9A
:100AA000F91E0A1F1B1F17FF05C016950795F7941F
:100AB000E794319687E016950795F794E7948A9521
:100AC000D1F705C0EE24FF248701EFEFF0E06E2F91
:100AD000679566276795902F9F77D794DD24D794E5
:100AE0008E2F8695492F462B582F5D29B701CA01B5
:100AF0001F910F91FF90EF90DF900895FC01DB01B3
:100B0000408151812281622F6F7770E0221F22275E
:100B1000221F9381892F880F822B282F30E0991F65
:100B20009927991F11969C93119721153105A9F5C5
:100B3000411551056105710511F482E037C082E865
:100B40009FEF13969C938E9312979A01AB0167E0E7
:100B5000220F331F441F551F6A95D1F783E08C93F2
:100B60000DC0220F331F441F551F12968D919C916B
:100B70001397019713969C938E931297203080E0E1
:100B8000380780E0480780E4580758F314962D93FF
:100B90003D934D935C93179708952F3F310579F45A
:100BA000411551056105710519F484E08C93089590
:100BB00064FF03C081E08C9312C01C9210C02F57B9
:100BC000304013963C932E93129783E08C9387E0EA
:100BD000440F551F661F771F8A95D1F770641496CE
:100BE0004D935D936D937C93179708951F93DC014C
:100BF000FB019C91923008F447C08081823008F458
:100C000043C0943051F411961C91843099F5818140
:100C1000682F70E0611B71093FC0843021F0923071
:100C200031F48230B9F18181882389F12DC0119688
:100C30001C9111978230F1F081811817D9F4129626
:100C40002D913C911397828193818217930794F0A1
:100C500028173907BCF014968D919D910D90BC9189
:100C6000A02D2481358146815781281739074A07ED
:100C70005B0718F4112341F00AC082179307A407F9
:100C8000B50740F4112319F061E070E005C06FEF83
:100C90007FEF02C060E070E0CB011F910895DF9309
:100CA000CF93CDB7DEB7A3E5B0E0E3E5F0E0808118
:100CB0008F7B8C93A3E5B0E0E3E5F0E08081886072
:100CC0008C938DE70E944607A3E5B0E0E3E5F0E0F2
:100CD000808180628C93A3E5B0E0E3E5F0E0808161
:100CE0008F7E8C93A3E5B0E0E3E5F0E08081816046
:100CF0008C93A3E5B0E0E3E5F0E0808182608C9323
:100D0000A3E5B0E0E3E5F0E080818B7F8C93E2E542
:100D1000F0E01082CF91DF910895DF93CF93CDB7AC
:100D2000DEB7A9E5B0E0E9E5F0E0808182608C9370
:100D30000E944C08CF91DF910895DF93CF93CDB7F8
:100D4000DEB7E8E5F0E08081882F90E08270907057
:100D5000009739F0A8E5B0E0E8E5F0E08081826036
:100D60008C93CF91DF910895DF93CF9300D0CDB7CF
:100D7000DEB79A83898389819A81009731F08981CE
:100D80009A8190932B0180932A010F900F90CF911D
:100D9000DF9108951F920F920FB60F9211242F9397
:100DA0003F934F935F936F937F938F939F93AF93F3
:100DB000BF93EF93FF93DF93CF93CDB7DEB78091CF
:100DC000280190912901009729F0E0912801F091E4
:100DD00029010995CF91DF91FF91EF91BF91AF91DB
:100DE0009F918F917F916F915F914F913F912F9143
:100DF0000F900FBE0F901F901895DF93CF9300D0E8
:100E0000CDB7DEB79A83898389819A81009731F0C3
:100E100089819A8190932B0180932A010F900F90E2
:100E2000CF91DF9108951F920F920FB60F92112468
:100E30002F933F934F935F936F937F938F939F93E2
:100E4000AF93BF93EF93FF93DF93CF93CDB7DEB70D
:100E500080912A0190912B01009729F0E0912A01BD
:100E6000F0912B010995CF91DF91FF91EF91BF9107
:100E7000AF919F918F917F916F915F914F913F9132
:100E80002F910F900FBE0F901F901895DF93CF9367
:100E90000F92CDB7DEB78983ECE5F0E089818083DE
:100EA0000F90CF91DF910895DF93CF930F92CDB73D
:100EB000DEB78983E2E5F0E0898180830F90CF91EE
:100EC000DF910895DF93CF930F92CDB7DEB789837B
:100ED0000F90CF91DF910895DF93CF930F92CDB70D
:100EE000DEB789830F90CF91DF910895DF93CF9381
:100EF000CDB7DEB7ADE2B0E0EDE2F0E080818F7714
:100F00008C93ADE2B0E0EDE2F0E0808180628C9302
:100F1000ADE2B0E0EDE2F0E0808180618C93ADE283
:100F2000B0E0EDE2F0E0808181608C93ADE2B0E072
:100F3000EDE2F0E080818D7F8C93AEE2B0E0EEE2F6
:100F4000F0E080818E7F8C93ADE2B0E0EDE2F0E0E6
:100F5000808188608C93ADE2B0E0EDE2F0E08081CA
:100F600084608C93AEE2B0E0EEE2F0E080818E7FB0
:100F70008C93ADE2B0E0EDE2F0E0808180648C9390
:100F8000CF91DF910895DF93CF930F92CDB7DEB766
:100F90008983EEE2F0E08081829586958695837064
:100FA000882F90E081709070882399F7EFE2F0E04D
:100FB00089818083EEE2F0E080818823DCF70F9066
:100FC000CF91DF910895DF93CF93CDB7DEB7EEE2F7
:100FD000F0E080818823DCF7EFE2F0E08081CF91C0
:100FE000DF910895DF93CF9300D00F92CDB7DEB796
:100FF00089837B836A838A819B81009789F0ADE234
:10100000B0E0EDE2F0E0808180688C93EFE2F0E008
:10101000898180838A819B8190932D0180932C010B
:101020000F900F900F90CF91DF9108951F920F9224
:101030000FB60F9211242F933F934F935F936F93AB
:101040007F938F939F93AF93BF93EF93FF93DF9320
:10105000CF93CDB7DEB780912C0190912D010097F1
:1010600041F0E0912C01F0912D01AFE2B0E08C91C4
:101070000995CF91DF91FF91EF91BF91AF919F9132
:101080008F917F916F915F914F913F912F910F9031
:101090000FBE0F901F901895DF93CF93CDB7DEB79B
:1010A000AFE5B0E0EFE5F0E0808180688C93CF9110
:1010B000DF910895DF93CF93CDB7DEB7AFE5B0E012
:1010C000EFE5F0E080818F778C93CF91DF910895E9
:1010D000DF93CF9300D00F92CDB7DEB7898389819C
:1010E000282F30E03B832A838A819B8181309105C0
:1010F00001F12A813B812230310589F18A819B816E
:10110000009709F041C0A5E5B0E0E5E5F0E0808199
:1011100082608C93A5E5B0E0E5E5F0E080818E7F0C
:101120008C93ABE5B0E0EBE5F0E0808180648C93DC
:101130002BC0A5E5B0E0E5E5F0E0808182608C930E
:10114000A5E5B0E0E5E5F0E080818E7F8C93ABE52E
:10115000B0E0EBE5F0E0808180688C9315C0A5E5F8
:10116000B0E0E5E5F0E0808182608C93A5E5B0E039
:10117000E5E5F0E080818E7F8C93ABE5B0E0EBE5B8
:10118000F0E0808180628C930F900F900F90CF9150
:10119000DF910895DF93CF9300D000D0CDB7DEB7B5
:1011A0001A8219827EC189819A81880F991F880FBE
:1011B000991FFC01E657FF4F8081282F30E03C83C8
:1011C0002B838B819C818130910509F46BC02B812D
:1011D0003C81223031052CF48B819C81009771F089
:1011E0005BC12B813C812230310509F4AFC08B817A
:1011F0009C818330910509F4FDC04EC189819A819B
:10120000880F991F880F991FFC01E457FF4F8081B9
:101210008823F1F4AAE3B0E0EAE3F0E08081482F0C
:1012200089819A81880F991F880F991FFC01E557C2
:10123000FF4F8081282F30E081E090E0022E02C035
:10124000880F991F0A94E2F7809584238C9324C118
:1012500089819A81880F991F880F991FFC01E45793
:10126000FF4F8081813009F017C1AAE3B0E0EAE3C3
:10127000F0E08081482F89819A81880F991F880F1B
:10128000991FFC01E557FF4F8081282F30E081E056
:1012900090E0022E02C0880F991F0A94E2F7842B77
:1012A0008C93FAC089819A81880F991F880F991FA2
:1012B000FC01E457FF4F80818823F1F4A7E3B0E0FD
:1012C000E7E3F0E08081482F89819A81880F991F98
:1012D000880F991FFC01E557FF4F8081282F30E0D0
:1012E00081E090E0022E02C0880F991F0A94E2F775
:1012F000809584238C93D0C089819A81880F991F0F
:10130000880F991FFC01E457FF4F8081813009F05D
:10131000C3C0A7E3B0E0E7E3F0E08081482F898114
:101320009A81880F991F880F991FFC01E557FF4F7D
:101330008081282F30E081E090E0022E02C0880FEB
:10134000991F0A94E2F7842B8C93A6C089819A8115
:10135000880F991F880F991FFC01E457FF4F808168
:101360008823F1F4A4E3B0E0E4E3F0E08081482FC7
:1013700089819A81880F991F880F991FFC01E55771
:10138000FF4F8081282F30E081E090E0022E02C0E4
:10139000880F991F0A94E2F7809584238C937CC070
:1013A00089819A81880F991F880F991FFC01E45742
:1013B000FF4F8081813009F06FC0A4E3B0E0E4E327
:1013C000F0E08081482F89819A81880F991F880FCA
:1013D000991FFC01E557FF4F8081282F30E081E005
:1013E00090E0022E02C0880F991F0A94E2F7842B26
:1013F0008C9352C089819A81880F991F880F991FF9
:10140000FC01E457FF4F80818823F1F4A1E3B0E0B1
:10141000E1E3F0E08081482F89819A81880F991F4C
:10142000880F991FFC01E557FF4F8081282F30E07E
:1014300081E090E0022E02C0880F991F0A94E2F723
:10144000809584238C9328C089819A81880F991F65
:10145000880F991FFC01E457FF4F80818130E1F430
:10146000A1E3B0E0E1E3F0E08081482F89819A8137
:10147000880F991F880F991FFC01E557FF4F808146
:10148000282F30E081E090E0022E02C0880F991FE3
:101490000A94E2F7842B8C9389819A8101969A832E
:1014A000898389819A818032910508F47CCE0F90DE
:1014B0000F900F900F90CF91DF910895DF93CF930E
:1014C00000D000D000D0CDB7DEB78B836C838B818A
:1014D0008695869586958A838B81877089838A8194
:1014E000282F30E03E832D838D819E8181309105B0
:1014F00009F45AC02D813E81223031052CF48D81B2
:101500009E81009771F017C12D813E8122303105F7
:1015100009F48DC08D819E818330910509F4CAC084
:101520000AC1AAE3B0E0EAE3F0E08081482F8981B4
:10153000282F30E081E090E0022E02C0880F991F32
:101540000A94E2F7842B8C938C818823A9F4ABE373
:10155000B0E0EBE3F0E08081482F8981282F30E074
:1015600081E090E0022E02C0880F991F0A94E2F7F2
:10157000809584238C93DFC08C81813009F0DBC09F
:10158000ABE3B0E0EBE3F0E08081482F8981282FC6
:1015900030E081E090E0022E02C0880F991F0A948B
:1015A000E2F7842B8C93C7C0A7E3B0E0E7E3F0E059
:1015B0008081482F8981282F30E081E090E0022E41
:1015C00002C0880F991F0A94E2F7842B8C938C81B8
:1015D0008823A9F4A8E3B0E0E8E3F0E08081482F95
:1015E0008981282F30E081E090E0022E02C0880F30
:1015F000991F0A94E2F7809584238C939CC08C8178
:10160000813009F098C0A8E3B0E0E8E3F0E0808121
:10161000482F8981282F30E081E090E0022E02C01F
:10162000880F991F0A94E2F7842B8C9384C0A4E35B
:10163000B0E0E4E3F0E08081482F8981282F30E09A
:1016400081E090E0022E02C0880F991F0A94E2F711
:10165000842B8C938C818823A9F4A5E3B0E0E5E387
:10166000F0E08081482F8981282F30E081E090E0F0
:10167000022E02C0880F991F0A94E2F780958423F6
:101680008C9359C08C81813009F055C0A5E3B0E03E
:10169000E5E3F0E08081482F8981282F30E081E068
:1016A00090E0022E02C0880F991F0A94E2F7842B63
:1016B0008C9341C0A1E3B0E0E1E3F0E08081482FEA
:1016C0008981282F30E081E090E0022E02C0880F4F
:1016D000991F0A94E2F7842B8C938C818823A9F4B8
:1016E000A2E3B0E0E2E3F0E08081482F8981282F77
:1016F00030E081E090E0022E02C0880F991F0A942A
:10170000E2F7809584238C9316C08C81813099F404
:10171000A2E3B0E0E2E3F0E08081482F8981282F46
:1017200030E081E090E0022E02C0880F991F0A94F9
:10173000E2F7842B8C9326960FB6F894DEBF0FBE8B
:10174000CDBFCF91DF910895DF93CF9300D000D02C
:1017500000D0CDB7DEB78C838C8186958695869533
:101760008B838C8187708A838B81282F30E03E8326
:101770002D834D815E814130510541F18D819E81E6
:101780008230910534F42D813E812115310561F0BF
:1017900052C04D815E814230510551F18D819E8153
:1017A00083309105B9F147C0E9E3F0E08081282F4B
:1017B00030E08A81882F90E0A90102C055954795B5
:1017C0008A95E2F7CA018170898335C0E6E3F0E0CB
:1017D0008081282F30E08A81882F90E0A90102C003
:1017E000559547958A95E2F7CA018170898323C090
:1017F000E3E3F0E08081282F30E08A81882F90E0B9
:10180000A90102C0559547958A95E2F7CA018170F2
:10181000898311C0E0E3F0E08081282F30E08A81E5
:10182000882F90E0A90102C0559547958A95E2F767
:10183000CA0181708983898126960FB6F894DEBF2C
:101840000FBECDBFCF91DF910895DF93CF93CDB77A
:10185000DEB728970FB6F894DEBF0FBECDBF8B83DF
:101860006C838B818695869586958A838B8187701C
:1018700089838C81813009F06FC08A81282F30E004
:1018800038872F838F8198858130910549F12F8189
:101890003885223031052CF48F819885009761F0CE
:1018A000D2C02F8138852230310571F18F81988522
:1018B00083309105E9F1C7C0AAE3B0E0EAE3F0E0C4
:1018C0008081482F8981282F30E081E090E0022E2E
:1018D00002C0880F991F0A94E2F7842B8C93B3C03F
:1018E000A7E3B0E0E7E3F0E08081482F8981282F6B
:1018F00030E081E090E0022E02C0880F991F0A9428
:10190000E2F7842B8C939FC0A4E3B0E0E4E3F0E023
:101910008081482F8981282F30E081E090E0022EDD
:1019200002C0880F991F0A94E2F7842B8C938BC016
:10193000A1E3B0E0E1E3F0E08081482F8981282F26
:1019400030E081E090E0022E02C0880F991F0A94D7
:10195000E2F7842B8C9377C08C81882309F073C0C5
:101960008A81282F30E03E832D838D819E818130B6
:10197000910559F12D813E81223031052CF48D8164
:101980009E81009769F05FC02D813E812230310534
:1019900089F18D819E818330910509F440C053C047
:1019A000AAE3B0E0EAE3F0E08081482F8981282FA4
:1019B00030E081E090E0022E02C0880F991F0A9467
:1019C000E2F7809584238C933EC0A7E3B0E0E7E381
:1019D000F0E08081482F8981282F30E081E090E07D
:1019E000022E02C0880F991F0A94E2F78095842383
:1019F0008C9329C0A4E3B0E0E4E3F0E08081482FB9
:101A00008981282F30E081E090E0022E02C0880F0B
:101A1000991F0A94E2F7809584238C9314C0A1E364
:101A2000B0E0E1E3F0E08081482F8981282F30E0A9
:101A300081E090E0022E02C0880F991F0A94E2F71D
:101A4000809584238C9328960FB6F894DEBF0FBE42
:101A5000CDBFCF91DF910895DF93CF9300D000D019
:101A600000D0CDB7DEB78B836C838B81869586954E
:101A700086958A838B81877089838A81282F30E0BD
:101A80003E832D838D819E818130910509F447C06D
:101A90002D813E81223031052CF48D819E8100976D
:101AA00071F0CBC02D813E812230310509F467C031
:101AB0008D819E818330910509F491C0BEC08C81D7
:101AC0008823A1F4ABE3B0E0EBE3F0E08081482FA2
:101AD0008981282F30E081E090E0022E02C0880F3B
:101AE000991F0A94E2F7842B8C93A7C08C818130D4
:101AF00009F0A3C0ABE3B0E0EBE3F0E08081482F56
:101B00008981282F30E081E090E0022E02C0880F0A
:101B1000991F0A94E2F7809584238C938EC08C8160
:101B20008823A1F4A8E3B0E0E8E3F0E08081482F47
:101B30008981282F30E081E090E0022E02C0880FDA
:101B4000991F0A94E2F7842B8C9377C08C818130A3
:101B500009F073C0A8E3B0E0E8E3F0E08081482F2B
:101B60008981282F30E081E090E0022E02C0880FAA
:101B7000991F0A94E2F7809584238C935EC08C8130
:101B80008823A1F4A5E3B0E0E5E3F0E08081482FED
:101B90008981282F30E081E090E0022E02C0880F7A
:101BA000991F0A94E2F7842B8C9347C08C81813073
:101BB00009F043C0A5E3B0E0E5E3F0E08081482F01
:101BC0008981282F30E081E090E0022E02C0880F4A
:101BD000991F0A94E2F7809584238C932EC08C8100
:101BE0008823A1F4A2E3B0E0E2E3F0E08081482F93
:101BF0008981282F30E081E090E0022E02C0880F1A
:101C0000991F0A94E2F7842B8C9317C08C81813042
:101C1000A1F4A2E3B0E0E2E3F0E08081482F898103
:101C2000282F30E081E090E0022E02C0880F991F3B
:101C30000A94E2F7809584238C9326960FB6F89445
:101C4000DEBF0FBECDBFCF91DF910895DF93CF935D
:101C500000D000D0CDB7DEB789836A838981282F71
:101C600030E03C832B838B819C8181309105D1F0C6
:101C70002B813C81223031052CF48B819C81009793
:101C800061F01EC02B813C812230310581F08B81B7
:101C90009C818330910581F013C0EBE3F0E08A81F1
:101CA00080830EC0E8E3F0E08A81808309C0E5E329
:101CB000F0E08A81808304C0E2E3F0E08A818083DF
:101CC0000F900F900F900F90CF91DF910895DF93B9
:101CD000CF93CDB7DEB7A7E2B0E0E7E2F0E08081D6
:101CE0008F7D8C93A6E2B0E0E6E2F0E08081806830
:101CF0008C93CF91DF910895DF93CF9300D00F9213
:101D0000CDB7DEB78983A7E2B0E0E7E2F0E08081FB
:101D100081608C93A7E2B0E0E7E2F0E080818D7F04
:101D20008C93A7E2B0E0E7E2F0E080818B7F8C93B8
:101D30008981282F30E03B832A838A819B818130EF
:101D4000910521F12A813B81223031052CF48A81D1
:101D50009B81009761F046C02A813B81223031058A
:101D600021F18A819B818330910571F13BC0A7E20B
:101D7000B0E0E7E2F0E080818F7B8C93A6E2B0E0F8
:101D8000E6E2F0E080818F778C932CC0A7E2B0E090
:101D9000E7E2F0E0808180648C93A6E2B0E0E6E2C6
:101DA000F0E080818F778C931DC0A7E2B0E0E7E27E
:101DB000F0E080818F7B8C93A6E2B0E0E6E2F0E079
:101DC000808180688C930EC0A7E2B0E0E7E2F0E08B
:101DD000808180648C93A6E2B0E0E6E2F0E080814E
:101DE00080688C93A6E2B0E0E6E2F0E08081806457
:101DF0008C930F900F900F90CF91DF910895DF9308
:101E0000CF930F92CDB7DEB78983E6E2F0E0808111
:101E100082958F70882F90E0817090700097A9F361
:101E2000A6E2B0E0E6E2F0E0808180618C93E4E23B
:101E3000F0E0808191810F90CF91DF910895DF9341
:101E4000CF93CDB7DEB7A6E2B0E0E6E2F0E0808166
:101E500088608C93CF91DF910895DF93CF930F9299
:101E6000CDB7DEB789838981982F917088E0692F7B
:101E70000E945E0A89818695982F917089E0692F6A
:101E80000E945E0A898186958695982F91708AE0D6
:101E9000692F0E945E0A8981869586958695982F7E
:101EA00091708CE0692F0E945E0A0F90CF91DF91B4
:101EB0000895DF93CF93CDB7DEB72E970FB6F89482
:101EC000DEBF0FBECDBF82E061E00E945E0A80E00F
:101ED00090E0A0E8BFE38B879C87AD87BE876B85CA
:101EE0007C858D859E8520E030E04AEF54E40E9499
:101EF0001F02DC01CB018F839887A987BA876F8186
:101F0000788589859A8520E030E040E85FE30E948B
:101F1000250488232CF481E090E09E838D833FC0CC
:101F20006F81788589859A8520E03FEF4FE757E4F8
:101F30000E94C50318164CF56B857C858D859E85A2
:101F400020E030E040E251E40E941F02DC01CB01BE
:101F5000BC01CD010E944900DC01CB019E838D8331
:101F60000FC088EC90E09C838B838B819C810197D0
:101F7000F1F79C838B838D819E8101979E838D8356
:101F80008D819E81009769F714C06F81788589855E
:101F90009A850E944900DC01CB019E838D838D814F
:101FA0009E819A83898389819A810197F1F79A8327
:101FB000898382E060E00E945E0A2E960FB6F89454
:101FC000DEBF0FBECDBFCF91DF9108950F931F935A
:101FD000DF93CF93CDB7DEB7CC54D0400FB6F89493
:101FE000DEBF0FBECDBFFE01E75BFF4F80E090E09C
:101FF000ACE0B2E480839183A283B3838E010B5B58
:102000001F4FFE01E75BFF4F6081718182819381E9
:1020100020E030E04AEF54E40E941F02DC01CB01D3
:10202000F80180839183A283B383FE01EB5BFF4FB2
:10203000608171818281938120E030E040E85FE33C
:102040000E942504882344F4FE01ED5BFF4F81E0EC
:1020500090E09183808364C0FE01EB5BFF4F608161
:1020600071818281938120E03FEF4FE757E40E9426
:10207000C50318160CF043C0FE01E75BFF4F6081FB
:1020800071818281938120E030E040E251E40E943E
:102090001F02DC01CB018E010D5B1F4FBC01CD0186
:1020A0000E944900DC01CB01F801918380831FC0AD
:1020B000FE01EF5BFF4F88EC90E091838083FE018F
:1020C000EF5BFF4F808191810197F1F7FE01EF5B9C
:1020D000FF4F91838083DE01AD5BBF4FFE01ED5B5F
:1020E000FF4F80819181019711969C938E93FE0101
:1020F000ED5BFF4F808191810097D1F624C08E0166
:102100000D5B1F4FFE01EB5BFF4F60817181828190
:1021100093810E944900DC01CB01F8019183808307
:10212000FE01ED5BFF4F80819181FE01FF9691835F
:102130008083FE01FF96808191810197F1F7FE0176
:10214000FF969183808383E060E00E945E0A82E0D4
:102150000E942D0F0E94590F88E20E94B21280E067
:1021600090E0A4E3B2E48BAF9CAFADAFBEAF6BAD7C
:102170007CAD8DAD9EAD2BEA3AEA4AE250E40E9476
:102180001F02DC01CB018FAB98AFA9AFBAAF6FA92B
:1021900078AD89AD9AAD20E030E040E85FE30E9481
:1021A000250488231CF481E08EAB91C06FA978AD23
:1021B00089AD9AAD20E030E04FE753E40E94C503BB
:1021C00018160CF07BC06BAD7CAD8DAD9EAD20E0E4
:1021D00030E04AE754E40E941903DC01CB018AABEA
:1021E0009BABACABBDAB6AA97BA98CA99DA920E038
:1021F00030E04AEF54E40E941F02DC01CB018EA7BD
:102200009FA7A8ABB9AB6EA57FA588A999A920E027
:1022100030E040E85FE30E94250488232CF481E04D
:1022200090E09DA78CA73FC06EA57FA588A999A91E
:1022300020E03FEF4FE757E40E94C50318164CF526
:102240006AA97BA98CA99DA920E030E040E251E475
:102250000E941F02DC01CB01BC01CD010E9449009C
:10226000DC01CB019DA78CA70FC088EC90E09BA759
:102270008AA78AA59BA50197F1F79BA78AA78CA59A
:102280009DA501979DA78CA78CA59DA5009769F793
:1022900024C06EA57FA588A999A90E944900DC01E8
:1022A000CB019DA78CA78CA59DA599A788A788A5DC
:1022B00099A50197F1F799A788A70FC06FA978ADE5
:1022C00089AD9AAD0E944900DC01CB018EAB8EA98D
:1022D0008FA38FA18A95F1F78FA38CE00E94B21291
:1022E00080E090E0A4E3B2E48BA39CA3ADA3BEA3E3
:1022F0006BA17CA18DA19EA12BEA3AEA4AE250E4AF
:102300000E941F02DC01CB018F8F98A3A9A3BAA35F
:102310006F8D78A189A19AA120E030E040E85FE3C9
:102320000E94250488231CF481E08E8F91C06F8D5C
:1023300078A189A19AA120E030E04FE753E40E9400
:10234000C50318160CF07BC06BA17CA18DA19EA1CA
:1023500020E030E04AE754E40E941903DC01CB019D
:102360008A8F9B8FAC8FBD8F6A8D7B8D8C8D9D8D61
:1023700020E030E04AEF54E40E941F02DC01CB0170
:102380008E8B9F8BA88FB98F6E897F89888D998D51
:1023900020E030E040E85FE30E94250488232CF42D
:1023A00081E090E09D8B8C8B3FC06E897F89888D0A
:1023B000998D20E03FEF4FE757E40E94C5031816C0
:1023C0004CF56A8D7B8D8C8D9D8D20E030E040E258
:1023D00051E40E941F02DC01CB01BC01CD010E942F
:1023E0004900DC01CB019D8B8C8B0FC088EC90E009
:1023F0009B8B8A8B8A899B890197F1F79B8B8A8BB0
:102400008C899D8901979D8B8C8B8C899D890097E8
:1024100069F724C06E897F89888D998D0E94490053
:10242000DC01CB019D8B8C8B8C899D89998B888B52
:10243000888999890197F1F7998B888B0FC06F8DE7
:1024400078A189A19AA10E944900DC01CB018E8F5D
:102450008E8D8F878F858A95F1F78F8781E00E9417
:10246000B21280E090E0A0E0B0E48B879C87AD875B
:10247000BE876B857C858D859E8520E030E04AEFA8
:1024800054E40E941F02DC01CB018F839887A98747
:10249000BA876F81788589859A8520E030E040E8A9
:1024A0005FE30E94250488232CF481E090E09E8362
:1024B0008D833FC06F81788589859A8520E03FEFC5
:1024C0004FE757E40E94C50318164CF56B857C85D1
:1024D0008D859E8520E030E040E251E40E941F029D
:1024E000DC01CB01BC01CD010E944900DC01CB0124
:1024F0009E838D830FC088EC90E09C838B838B81BF
:102500009C810197F1F79C838B838D819E8101973C
:102510009E838D838D819E81009769F714C06F81A2
:10252000788589859A850E944900DC01CB019E83CC
:102530008D838D819E819A83898389819A81019778
:10254000F1F79A83898386E00E94B212C45BDF4F61
:102550000FB6F894DEBF0FBECDBFCF91DF911F91B4
:102560000F910895DF93CF930F92CDB7DEB7898394
:1025700083E060E00E945E0A898182958F700E94EC
:102580002D0F0E94590F89810E942D0F0E94590F13
:102590000F90CF91DF910895DF93CF930F92CDB736
:1025A000DEB7898383E061E00E945E0A89818295BB
:1025B0008F700E942D0F0E94590F89810E942D0F4C
:1025C0000E94590F0F90CF91DF910895DF93CF9321
:1025D00000D000D0CDB7DEB79C838B831A821982DE
:1025E0000FC029813A818B819C81FC01E20FF31F8E
:1025F00080810E94CC1289819A8101969A83898375
:1026000029813A818B819C81FC01E20FF31F80813B
:10261000882339F70F900F900F900F90CF91DF9193
:102620000895DF93CF93CDB7DEB72E970FB6F8940A
:10263000DEBF0FBECDBF81E00E94B21280E090E00D
:10264000A0E0B0E48B879C87AD87BE876B857C85D7
:102650008D859E8520E030E04AEF54E40E941F0201
:10266000DC01CB018F839887A987BA876F81788532
:1026700089859A8520E030E040E85FE30E942504E8
:1026800088232CF481E090E09E838D833FC06F818E
:10269000788589859A8520E03FEF4FE757E40E94CF
:1026A000C50318164CF56B857C858D859E8520E0CD
:1026B00030E040E251E40E941F02DC01CB01BC018A
:1026C000CD010E944900DC01CB019E838D830FC0A8
:1026D00088EC90E09C838B838B819C810197F1F740
:1026E0009C838B838D819E8101979E838D838D81B9
:1026F0009E81009769F714C06F81788589859A85D6
:102700000E944900DC01CB019E838D838D819E81D7
:102710009A83898389819A810197F1F79A838983C2
:1027200080E80E94B2122E960FB6F894DEBF0FBE5C
:10273000CDBFCF91DF910895DF93CF9300D00F925B
:10274000CDB7DEB78A836B838B81843188F48A812D
:10275000843070F48A81882F90E0FC01EE5EFE4F99
:1027600090818B81890F8983898180680E94B21250
:102770000F900F900F90CF91DF910895DF93CF933B
:1027800000D0CDB7DEB78A838A81805D8983898155
:102790000E94CC120F900F90CF91DF910895DF939C
:1027A000CF93CDB7DEB785E161E00E94250C84E1CF
:1027B00061E00E94250C83E161E00E94250C82E12A
:1027C00061E00E94250C85E161E00E945E0A84E1DF
:1027D00061E00E945E0A83E161E00E945E0A82E19C
:1027E00061E00E945E0A8FE160E00E94250C8EE1AC
:1027F00060E00E94250C8DE160E00E94250C8BE1D9
:1028000060E00E94250C8FE160E00E942C0D8EE1BB
:1028100060E00E942C0D8DE160E00E942C0D8BE1A8
:1028200060E00E942C0DCF91DF910895DF93CF934C
:10283000CDB7DEB7A7970FB6F894DEBF0FBECDBFFA
:10284000CE0143969CA38BA3E6E1F1E0FEA3EDA3AA
:10285000F0E1FFA3EDA1FEA100808DA19EA1019654
:102860009EA38DA3EBA1FCA100828BA19CA101964C
:102870009CA38BA39FA191509FA3EFA1EE2351F79F
:10288000188A8FEF8F87198AC3C08989882F90E0B3
:10289000FC01E25FFE4F808160E00E945E0A1A8ABE
:1028A000A3C08A89882F90E0FC01E65FFE4F8081FB
:1028B0000E94A40B882309F094C08989282F30E056
:1028C0008A89482F50E0220F331F220F331FCE0179
:1028D0000196820F931F840F951FFC0172968081D1
:1028E0008F878A89882F90E0FC01E65FFE4F808108
:1028F0000E94A40B8823A9F380E090E0A0E2B1E459
:102900008B879C87AD87BE876B857C858D859E85F3
:1029100020E030E04AEF54E40E941F02DC01CB01CA
:102920008F839887A987BA876F81788589859A85EB
:1029300020E030E040E85FE30E94250488232CF487
:1029400081E090E09E838D833FC06F81788589858B
:102950009A8520E03FEF4FE757E40E94C503181621
:102960004CF56B857C858D859E8520E030E040E2CE
:1029700051E40E941F02DC01CB01BC01CD010E9489
:102980004900DC01CB019E838D830FC088EC90E071
:102990009C838B838B819C810197F1F79C838B8334
:1029A0008D819E8101979E838D838D819E8100976D
:1029B00069F714C06F81788589859A850E944900DE
:1029C000DC01CB019E838D838D819E819A838983D7
:1029D00089819A810197F1F79A83898381E0888BB5
:1029E00007C08A898F5F8A8B8A89843008F459CF1F
:1029F0008989882F90E0FC01E25FFE4F808161E0D1
:102A00000E945E0A8889813039F089898F5F898BBD
:102A10008989843008F439CF8F85A7960FB6F8944A
:102A2000DEBF0FBECDBFCF91DF910895DF93CF936F
:102A3000CDB7DEB70E94CA080E94E60F0E944F067B
:102A400080E065E00E949C1380E690E00E94E61220
:102A500081E064E00E949C138FE690E00E94E61201
:102A600082E069E00E949C138DE790E00E94E612EC
:102A70008FE395E10E94FD060E948D06FFCFDF9354
:102A8000CF93CDB7DEB780912E0190912F01A09109
:102A90003001B09131010097A105B10541F489E001
:102AA0008093320188E161E00E945E0A5BC0809100
:102AB0002E0190912F01A0913001B0913101883EFB
:102AC00023E0920720E0A20720E0B20761F484E04F
:102AD0008093320188E160E00E945E0A89E161E052
:102AE0000E945E0A3FC080912E0190912F01A0911B
:102AF0003001B09131018C3D25E0920720E0A20722
:102B000020E0B20761F486E08093320189E160E061
:102B10000E945E0A8AE161E00E945E0A23C0809101
:102B20002E0190912F01A0913001B091310188398F
:102B300028E0920720E0A20720E0B20799F489E09C
:102B4000809332018AE160E00E945E0A88E161E0E0
:102B50000E945E0A10922E0110922F0110923001F5
:102B60001092310180912E0190912F01A09130019E
:102B7000B091310124E630E040E050E0BC01CD01ED
:102B80000E94EB15DC01CB010097A105B10569F4AA
:102B900082E068E00E949C13809132010E94BE1383
:102BA0008091320181508093320180912E01909169
:102BB0002F01A0913001B09131010196A11DB11DED
:102BC00080932E0190932F01A0933001B093310197
:102BD000CF91DF910895A1E21A2EAA1BBB1BFD0124
:102BE0000DC0AA1FBB1FEE1FFF1FA217B307E407EC
:102BF000F50720F0A21BB30BE40BF50B661F771F44
:102C0000881F991F1A9469F7609570958095909523
:102C10009B01AC01BD01CF0108952F923F924F92CD
:102C20005F926F927F928F929F92AF92BF92CF925C
:102C3000DF92EF92FF920F931F93CF93DF93CDB765
:102C4000DEB7CA1BDB0B0FB6F894DEBF0FBECDBFDD
:102C500009942A88398848885F846E847D848C84AE
:102C60009B84AA84B984C884DF80EE80FD800C81B7
:102C70001B81AA81B981CE0FD11D0FB6F894DEBF9A
:0C2C80000FBECDBFED010895F894FFCF0A
:102C8C0054726166666963204C69676874200052EF
:102C9C0065616D696E672074696D653A00205365D6
:102CAC0063000000000000000000000000000001B4
:102CBC0001000002010000030100000400000005F7
:102CCC0001000006000000070000010001000101E6
:102CDC0001000102010001030000010401000105D3
:102CEC0001000106010001070100020000000201C1
:102CFC0001000202010002030100020401000205AE
:102D0C00010002060100020701000300010003019B
:102D1C00010003020100030300000304000003058B
:102D2C00000003060000030700001F1E1D1B1514E6
:102D3C001312004014543738392F3435362A3132B7
:062D4C00332D41303D2B48
:00000001FF
